{
  "_format": "hh-sol-artifact-1",
  "contractName": "NFT",
  "sourceName": "contracts/NFT.sol",
  "abi": [
    {
      "inputs": [
        {
          "internalType": "string",
          "name": "_name",
          "type": "string"
        },
        {
          "internalType": "string",
          "name": "_symbol",
          "type": "string"
        },
        {
          "internalType": "string",
          "name": "_initBaseURI",
          "type": "string"
        }
      ],
      "stateMutability": "nonpayable",
      "type": "constructor"
    },
    {
      "anonymous": false,
      "inputs": [
        {
          "indexed": true,
          "internalType": "address",
          "name": "owner",
          "type": "address"
        },
        {
          "indexed": true,
          "internalType": "address",
          "name": "approved",
          "type": "address"
        },
        {
          "indexed": true,
          "internalType": "uint256",
          "name": "tokenId",
          "type": "uint256"
        }
      ],
      "name": "Approval",
      "type": "event"
    },
    {
      "anonymous": false,
      "inputs": [
        {
          "indexed": true,
          "internalType": "address",
          "name": "owner",
          "type": "address"
        },
        {
          "indexed": true,
          "internalType": "address",
          "name": "operator",
          "type": "address"
        },
        {
          "indexed": false,
          "internalType": "bool",
          "name": "approved",
          "type": "bool"
        }
      ],
      "name": "ApprovalForAll",
      "type": "event"
    },
    {
      "anonymous": false,
      "inputs": [
        {
          "indexed": true,
          "internalType": "address",
          "name": "previousOwner",
          "type": "address"
        },
        {
          "indexed": true,
          "internalType": "address",
          "name": "newOwner",
          "type": "address"
        }
      ],
      "name": "OwnershipTransferred",
      "type": "event"
    },
    {
      "anonymous": false,
      "inputs": [
        {
          "indexed": true,
          "internalType": "address",
          "name": "from",
          "type": "address"
        },
        {
          "indexed": true,
          "internalType": "address",
          "name": "to",
          "type": "address"
        },
        {
          "indexed": true,
          "internalType": "uint256",
          "name": "tokenId",
          "type": "uint256"
        }
      ],
      "name": "Transfer",
      "type": "event"
    },
    {
      "inputs": [
        {
          "internalType": "address",
          "name": "to",
          "type": "address"
        },
        {
          "internalType": "uint256",
          "name": "tokenId",
          "type": "uint256"
        }
      ],
      "name": "approve",
      "outputs": [],
      "stateMutability": "nonpayable",
      "type": "function"
    },
    {
      "inputs": [
        {
          "internalType": "address",
          "name": "owner",
          "type": "address"
        }
      ],
      "name": "balanceOf",
      "outputs": [
        {
          "internalType": "uint256",
          "name": "",
          "type": "uint256"
        }
      ],
      "stateMutability": "view",
      "type": "function"
    },
    {
      "inputs": [],
      "name": "baseExtension",
      "outputs": [
        {
          "internalType": "string",
          "name": "",
          "type": "string"
        }
      ],
      "stateMutability": "view",
      "type": "function"
    },
    {
      "inputs": [],
      "name": "cost",
      "outputs": [
        {
          "internalType": "uint256",
          "name": "",
          "type": "uint256"
        }
      ],
      "stateMutability": "view",
      "type": "function"
    },
    {
      "inputs": [
        {
          "internalType": "uint256",
          "name": "tokenId",
          "type": "uint256"
        }
      ],
      "name": "getApproved",
      "outputs": [
        {
          "internalType": "address",
          "name": "",
          "type": "address"
        }
      ],
      "stateMutability": "view",
      "type": "function"
    },
    {
      "inputs": [
        {
          "internalType": "address",
          "name": "owner",
          "type": "address"
        },
        {
          "internalType": "address",
          "name": "operator",
          "type": "address"
        }
      ],
      "name": "isApprovedForAll",
      "outputs": [
        {
          "internalType": "bool",
          "name": "",
          "type": "bool"
        }
      ],
      "stateMutability": "view",
      "type": "function"
    },
    {
      "inputs": [],
      "name": "maxSupply",
      "outputs": [
        {
          "internalType": "uint256",
          "name": "",
          "type": "uint256"
        }
      ],
      "stateMutability": "view",
      "type": "function"
    },
    {
      "inputs": [
        {
          "internalType": "uint256",
          "name": "mintAmount",
          "type": "uint256"
        }
      ],
      "name": "mint",
      "outputs": [],
      "stateMutability": "payable",
      "type": "function"
    },
    {
      "inputs": [],
      "name": "mintActive",
      "outputs": [
        {
          "internalType": "bool",
          "name": "",
          "type": "bool"
        }
      ],
      "stateMutability": "view",
      "type": "function"
    },
    {
      "inputs": [],
      "name": "name",
      "outputs": [
        {
          "internalType": "string",
          "name": "",
          "type": "string"
        }
      ],
      "stateMutability": "view",
      "type": "function"
    },
    {
      "inputs": [],
      "name": "owner",
      "outputs": [
        {
          "internalType": "address",
          "name": "",
          "type": "address"
        }
      ],
      "stateMutability": "view",
      "type": "function"
    },
    {
      "inputs": [
        {
          "internalType": "uint256",
          "name": "tokenId",
          "type": "uint256"
        }
      ],
      "name": "ownerOf",
      "outputs": [
        {
          "internalType": "address",
          "name": "",
          "type": "address"
        }
      ],
      "stateMutability": "view",
      "type": "function"
    },
    {
      "inputs": [],
      "name": "renounceOwnership",
      "outputs": [],
      "stateMutability": "nonpayable",
      "type": "function"
    },
    {
      "inputs": [
        {
          "internalType": "address",
          "name": "from",
          "type": "address"
        },
        {
          "internalType": "address",
          "name": "to",
          "type": "address"
        },
        {
          "internalType": "uint256",
          "name": "tokenId",
          "type": "uint256"
        }
      ],
      "name": "safeTransferFrom",
      "outputs": [],
      "stateMutability": "nonpayable",
      "type": "function"
    },
    {
      "inputs": [
        {
          "internalType": "address",
          "name": "from",
          "type": "address"
        },
        {
          "internalType": "address",
          "name": "to",
          "type": "address"
        },
        {
          "internalType": "uint256",
          "name": "tokenId",
          "type": "uint256"
        },
        {
          "internalType": "bytes",
          "name": "_data",
          "type": "bytes"
        }
      ],
      "name": "safeTransferFrom",
      "outputs": [],
      "stateMutability": "nonpayable",
      "type": "function"
    },
    {
      "inputs": [
        {
          "internalType": "address",
          "name": "operator",
          "type": "address"
        },
        {
          "internalType": "bool",
          "name": "approved",
          "type": "bool"
        }
      ],
      "name": "setApprovalForAll",
      "outputs": [],
      "stateMutability": "nonpayable",
      "type": "function"
    },
    {
      "inputs": [
        {
          "internalType": "string",
          "name": "_newBaseURI",
          "type": "string"
        }
      ],
      "name": "setBaseURI",
      "outputs": [],
      "stateMutability": "nonpayable",
      "type": "function"
    },
    {
      "inputs": [
        {
          "internalType": "uint256",
          "name": "_newCost",
          "type": "uint256"
        }
      ],
      "name": "setCost",
      "outputs": [],
      "stateMutability": "nonpayable",
      "type": "function"
    },
    {
      "inputs": [
        {
          "internalType": "bool",
          "name": "_val",
          "type": "bool"
        }
      ],
      "name": "setMintActive",
      "outputs": [],
      "stateMutability": "nonpayable",
      "type": "function"
    },
    {
      "inputs": [
        {
          "internalType": "bytes4",
          "name": "interfaceId",
          "type": "bytes4"
        }
      ],
      "name": "supportsInterface",
      "outputs": [
        {
          "internalType": "bool",
          "name": "",
          "type": "bool"
        }
      ],
      "stateMutability": "view",
      "type": "function"
    },
    {
      "inputs": [],
      "name": "symbol",
      "outputs": [
        {
          "internalType": "string",
          "name": "",
          "type": "string"
        }
      ],
      "stateMutability": "view",
      "type": "function"
    },
    {
      "inputs": [
        {
          "internalType": "uint256",
          "name": "index",
          "type": "uint256"
        }
      ],
      "name": "tokenByIndex",
      "outputs": [
        {
          "internalType": "uint256",
          "name": "",
          "type": "uint256"
        }
      ],
      "stateMutability": "view",
      "type": "function"
    },
    {
      "inputs": [
        {
          "internalType": "address",
          "name": "owner",
          "type": "address"
        },
        {
          "internalType": "uint256",
          "name": "index",
          "type": "uint256"
        }
      ],
      "name": "tokenOfOwnerByIndex",
      "outputs": [
        {
          "internalType": "uint256",
          "name": "",
          "type": "uint256"
        }
      ],
      "stateMutability": "view",
      "type": "function"
    },
    {
      "inputs": [
        {
          "internalType": "uint256",
          "name": "tokenId",
          "type": "uint256"
        }
      ],
      "name": "tokenURI",
      "outputs": [
        {
          "internalType": "string",
          "name": "",
          "type": "string"
        }
      ],
      "stateMutability": "view",
      "type": "function"
    },
    {
      "inputs": [],
      "name": "totalSupply",
      "outputs": [
        {
          "internalType": "uint256",
          "name": "",
          "type": "uint256"
        }
      ],
      "stateMutability": "view",
      "type": "function"
    },
    {
      "inputs": [
        {
          "internalType": "address",
          "name": "from",
          "type": "address"
        },
        {
          "internalType": "address",
          "name": "to",
          "type": "address"
        },
        {
          "internalType": "uint256",
          "name": "tokenId",
          "type": "uint256"
        }
      ],
      "name": "transferFrom",
      "outputs": [],
      "stateMutability": "nonpayable",
      "type": "function"
    },
    {
      "inputs": [
        {
          "internalType": "address",
          "name": "newOwner",
          "type": "address"
        }
      ],
      "name": "transferOwnership",
      "outputs": [],
      "stateMutability": "nonpayable",
      "type": "function"
    },
    {
      "inputs": [
        {
          "internalType": "address",
          "name": "_owner",
          "type": "address"
        }
      ],
      "name": "walletOfOwner",
      "outputs": [
        {
          "internalType": "uint256[]",
          "name": "",
          "type": "uint256[]"
        }
      ],
      "stateMutability": "view",
      "type": "function"
    },
    {
      "inputs": [],
      "name": "withdraw",
      "outputs": [],
      "stateMutability": "payable",
      "type": "function"
    }
  ],
  "bytecode": "0x60806040526040518060400160405280600581526020017f2e6a736f6e000000000000000000000000000000000000000000000000000000815250600c908051906020019062000051929190620002c2565b50655af3107a4000600d556014600e556000600f60006101000a81548160ff0219169083151502179055503480156200008957600080fd5b50604051620046f4380380620046f48339818101604052810190620000af9190620003e4565b82828160009080519060200190620000c9929190620002c2565b508060019080519060200190620000e2929190620002c2565b50505062000105620000f96200011f60201b60201c565b6200012760201b60201c565b6200011681620001ed60201b60201c565b50505062000678565b600033905090565b6000600a60009054906101000a900473ffffffffffffffffffffffffffffffffffffffff16905081600a60006101000a81548173ffffffffffffffffffffffffffffffffffffffff021916908373ffffffffffffffffffffffffffffffffffffffff1602179055508173ffffffffffffffffffffffffffffffffffffffff168173ffffffffffffffffffffffffffffffffffffffff167f8be0079c531659141344cd1fd0a4f28419497f9722a3daafe3b4186f6b6457e060405160405180910390a35050565b620001fd6200011f60201b60201c565b73ffffffffffffffffffffffffffffffffffffffff16620002236200029860201b60201c565b73ffffffffffffffffffffffffffffffffffffffff16146200027c576040517f08c379a00000000000000000000000000000000000000000000000000000000081526004016200027390620004ac565b60405180910390fd5b80600b908051906020019062000294929190620002c2565b5050565b6000600a60009054906101000a900473ffffffffffffffffffffffffffffffffffffffff16905090565b828054620002d09062000574565b90600052602060002090601f016020900481019282620002f4576000855562000340565b82601f106200030f57805160ff191683800117855562000340565b8280016001018555821562000340579182015b828111156200033f57825182559160200191906001019062000322565b5b5090506200034f919062000353565b5090565b5b808211156200036e57600081600090555060010162000354565b5090565b6000620003896200038384620004f7565b620004ce565b905082815260208101848484011115620003a257600080fd5b620003af8482856200053e565b509392505050565b600082601f830112620003c957600080fd5b8151620003db84826020860162000372565b91505092915050565b600080600060608486031215620003fa57600080fd5b600084015167ffffffffffffffff8111156200041557600080fd5b6200042386828701620003b7565b935050602084015167ffffffffffffffff8111156200044157600080fd5b6200044f86828701620003b7565b925050604084015167ffffffffffffffff8111156200046d57600080fd5b6200047b86828701620003b7565b9150509250925092565b6000620004946020836200052d565b9150620004a1826200064f565b602082019050919050565b60006020820190508181036000830152620004c78162000485565b9050919050565b6000620004da620004ed565b9050620004e88282620005aa565b919050565b6000604051905090565b600067ffffffffffffffff8211156200051557620005146200060f565b5b62000520826200063e565b9050602081019050919050565b600082825260208201905092915050565b60005b838110156200055e57808201518184015260208101905062000541565b838111156200056e576000848401525b50505050565b600060028204905060018216806200058d57607f821691505b60208210811415620005a457620005a3620005e0565b5b50919050565b620005b5826200063e565b810181811067ffffffffffffffff82111715620005d757620005d66200060f565b5b80604052505050565b7f4e487b7100000000000000000000000000000000000000000000000000000000600052602260045260246000fd5b7f4e487b7100000000000000000000000000000000000000000000000000000000600052604160045260246000fd5b6000601f19601f8301169050919050565b7f4f776e61626c653a2063616c6c6572206973206e6f7420746865206f776e6572600082015250565b61406c80620006886000396000f3fe6080604052600436106101c25760003560e01c806355f804b3116100f7578063a22cb46511610095578063d5abeb0111610064578063d5abeb0114610638578063e985e9c514610663578063ee1cc944146106a0578063f2fde38b146106c9576101c2565b8063a22cb4651461057e578063b88d4fde146105a7578063c6682862146105d0578063c87b56dd146105fb576101c2565b8063715018a6116100d1578063715018a6146104f55780638da5cb5b1461050c57806395d89b4114610537578063a0712d6814610562576101c2565b806355f804b3146104525780636352211e1461047b57806370a08231146104b8576101c2565b806325fd90f31161016457806342842e0e1161013e57806342842e0e14610386578063438b6300146103af57806344a0d68a146103ec5780634f6ccce714610415576101c2565b806325fd90f3146103145780632f745c591461033f5780633ccfd60b1461037c576101c2565b8063095ea7b3116101a0578063095ea7b31461026c57806313faede61461029557806318160ddd146102c057806323b872dd146102eb576101c2565b806301ffc9a7146101c757806306fdde0314610204578063081812fc1461022f575b600080fd5b3480156101d357600080fd5b506101ee60048036038101906101e99190612ce1565b6106f2565b6040516101fb919061331f565b60405180910390f35b34801561021057600080fd5b5061021961076c565b604051610226919061333a565b60405180910390f35b34801561023b57600080fd5b5061025660048036038101906102519190612d74565b6107fe565b6040516102639190613296565b60405180910390f35b34801561027857600080fd5b50610293600480360381019061028e9190612c7c565b610883565b005b3480156102a157600080fd5b506102aa61099b565b6040516102b791906135dc565b60405180910390f35b3480156102cc57600080fd5b506102d56109a1565b6040516102e291906135dc565b60405180910390f35b3480156102f757600080fd5b50610312600480360381019061030d9190612b76565b6109ae565b005b34801561032057600080fd5b50610329610a0e565b604051610336919061331f565b60405180910390f35b34801561034b57600080fd5b5061036660048036038101906103619190612c7c565b610a21565b60405161037391906135dc565b60405180910390f35b610384610ac6565b005b34801561039257600080fd5b506103ad60048036038101906103a89190612b76565b610bbb565b005b3480156103bb57600080fd5b506103d660048036038101906103d19190612b11565b610bdb565b6040516103e391906132fd565b60405180910390f35b3480156103f857600080fd5b50610413600480360381019061040e9190612d74565b610cd5565b005b34801561042157600080fd5b5061043c60048036038101906104379190612d74565b610d5b565b60405161044991906135dc565b60405180910390f35b34801561045e57600080fd5b5061047960048036038101906104749190612d33565b610df2565b005b34801561048757600080fd5b506104a2600480360381019061049d9190612d74565b610e88565b6040516104af9190613296565b60405180910390f35b3480156104c457600080fd5b506104df60048036038101906104da9190612b11565b610f3a565b6040516104ec91906135dc565b60405180910390f35b34801561050157600080fd5b5061050a610ff2565b005b34801561051857600080fd5b5061052161107a565b60405161052e9190613296565b60405180910390f35b34801561054357600080fd5b5061054c6110a4565b604051610559919061333a565b60405180910390f35b61057c60048036038101906105779190612d74565b611136565b005b34801561058a57600080fd5b506105a560048036038101906105a09190612c40565b61122b565b005b3480156105b357600080fd5b506105ce60048036038101906105c99190612bc5565b611241565b005b3480156105dc57600080fd5b506105e56112a3565b6040516105f2919061333a565b60405180910390f35b34801561060757600080fd5b50610622600480360381019061061d9190612d74565b611331565b60405161062f919061333a565b60405180910390f35b34801561064457600080fd5b5061064d6113db565b60405161065a91906135dc565b60405180910390f35b34801561066f57600080fd5b5061068a60048036038101906106859190612b3a565b6113e1565b604051610697919061331f565b60405180910390f35b3480156106ac57600080fd5b506106c760048036038101906106c29190612cb8565b611475565b005b3480156106d557600080fd5b506106f060048036038101906106eb9190612b11565b61150e565b005b60007f780e9d63000000000000000000000000000000000000000000000000000000007bffffffffffffffffffffffffffffffffffffffffffffffffffffffff1916827bffffffffffffffffffffffffffffffffffffffffffffffffffffffff19161480610765575061076482611606565b5b9050919050565b60606000805461077b906138e5565b80601f01602080910402602001604051908101604052809291908181526020018280546107a7906138e5565b80156107f45780601f106107c9576101008083540402835291602001916107f4565b820191906000526020600020905b8154815290600101906020018083116107d757829003601f168201915b5050505050905090565b6000610809826116e8565b610848576040517f08c379a000000000000000000000000000000000000000000000000000000000815260040161083f9061351c565b60405180910390fd5b6004600083815260200190815260200160002060009054906101000a900473ffffffffffffffffffffffffffffffffffffffff169050919050565b600061088e82610e88565b90508073ffffffffffffffffffffffffffffffffffffffff168373ffffffffffffffffffffffffffffffffffffffff1614156108ff576040517f08c379a00000000000000000000000000000000000000000000000000000000081526004016108f69061357c565b60405180910390fd5b8073ffffffffffffffffffffffffffffffffffffffff1661091e611754565b73ffffffffffffffffffffffffffffffffffffffff16148061094d575061094c81610947611754565b6113e1565b5b61098c576040517f08c379a00000000000000000000000000000000000000000000000000000000081526004016109839061349c565b60405180910390fd5b610996838361175c565b505050565b600d5481565b6000600880549050905090565b6109bf6109b9611754565b82611815565b6109fe576040517f08c379a00000000000000000000000000000000000000000000000000000000081526004016109f59061359c565b60405180910390fd5b610a098383836118f3565b505050565b600f60009054906101000a900460ff1681565b6000610a2c83610f3a565b8210610a6d576040517f08c379a0000000000000000000000000000000000000000000000000000000008152600401610a649061337c565b60405180910390fd5b600660008473ffffffffffffffffffffffffffffffffffffffff1673ffffffffffffffffffffffffffffffffffffffff168152602001908152602001600020600083815260200190815260200160002054905092915050565b610ace611754565b73ffffffffffffffffffffffffffffffffffffffff16610aec61107a565b73ffffffffffffffffffffffffffffffffffffffff1614610b42576040517f08c379a0000000000000000000000000000000000000000000000000000000008152600401610b399061353c565b60405180910390fd5b60003373ffffffffffffffffffffffffffffffffffffffff1647604051610b6890613281565b60006040518083038185875af1925050503d8060008114610ba5576040519150601f19603f3d011682016040523d82523d6000602084013e610baa565b606091505b5050905080610bb857600080fd5b50565b610bd683838360405180602001604052806000815250611241565b505050565b60606000610be883610f3a565b905060008167ffffffffffffffff811115610c2c577f4e487b7100000000000000000000000000000000000000000000000000000000600052604160045260246000fd5b604051908082528060200260200182016040528015610c5a5781602001602082028036833780820191505090505b50905060005b82811015610cca57610c728582610a21565b828281518110610cab577f4e487b7100000000000000000000000000000000000000000000000000000000600052603260045260246000fd5b6020026020010181815250508080610cc290613948565b915050610c60565b508092505050919050565b610cdd611754565b73ffffffffffffffffffffffffffffffffffffffff16610cfb61107a565b73ffffffffffffffffffffffffffffffffffffffff1614610d51576040517f08c379a0000000000000000000000000000000000000000000000000000000008152600401610d489061353c565b60405180910390fd5b80600d8190555050565b6000610d656109a1565b8210610da6576040517f08c379a0000000000000000000000000000000000000000000000000000000008152600401610d9d906135bc565b60405180910390fd5b60088281548110610de0577f4e487b7100000000000000000000000000000000000000000000000000000000600052603260045260246000fd5b90600052602060002001549050919050565b610dfa611754565b73ffffffffffffffffffffffffffffffffffffffff16610e1861107a565b73ffffffffffffffffffffffffffffffffffffffff1614610e6e576040517f08c379a0000000000000000000000000000000000000000000000000000000008152600401610e659061353c565b60405180910390fd5b80600b9080519060200190610e84929190612935565b5050565b6000806002600084815260200190815260200160002060009054906101000a900473ffffffffffffffffffffffffffffffffffffffff169050600073ffffffffffffffffffffffffffffffffffffffff168173ffffffffffffffffffffffffffffffffffffffff161415610f31576040517f08c379a0000000000000000000000000000000000000000000000000000000008152600401610f28906134dc565b60405180910390fd5b80915050919050565b60008073ffffffffffffffffffffffffffffffffffffffff168273ffffffffffffffffffffffffffffffffffffffff161415610fab576040517f08c379a0000000000000000000000000000000000000000000000000000000008152600401610fa2906134bc565b60405180910390fd5b600360008373ffffffffffffffffffffffffffffffffffffffff1673ffffffffffffffffffffffffffffffffffffffff168152602001908152602001600020549050919050565b610ffa611754565b73ffffffffffffffffffffffffffffffffffffffff1661101861107a565b73ffffffffffffffffffffffffffffffffffffffff161461106e576040517f08c379a00000000000000000000000000000000000000000000000000000000081526004016110659061353c565b60405180910390fd5b6110786000611b5a565b565b6000600a60009054906101000a900473ffffffffffffffffffffffffffffffffffffffff16905090565b6060600180546110b3906138e5565b80601f01602080910402602001604051908101604052809291908181526020018280546110df906138e5565b801561112c5780601f106111015761010080835404028352916020019161112c565b820191906000526020600020905b81548152906001019060200180831161110f57829003601f168201915b5050505050905090565b60006111406109a1565b9050600f60009054906101000a900460ff16611191576040517f08c379a00000000000000000000000000000000000000000000000000000000081526004016111889061335c565b60405180910390fd5b600e548111156111d6576040517f08c379a00000000000000000000000000000000000000000000000000000000081526004016111cd9061345c565b60405180910390fd5b600d54826111e491906137a1565b3410156111f057600080fd5b6000600190505b8281116112265761121333828461120e919061371a565b611c20565b808061121e90613948565b9150506111f7565b505050565b61123d611236611754565b8383611c3e565b5050565b61125261124c611754565b83611815565b611291576040517f08c379a00000000000000000000000000000000000000000000000000000000081526004016112889061359c565b60405180910390fd5b61129d84848484611dab565b50505050565b600c80546112b0906138e5565b80601f01602080910402602001604051908101604052809291908181526020018280546112dc906138e5565b80156113295780601f106112fe57610100808354040283529160200191611329565b820191906000526020600020905b81548152906001019060200180831161130c57829003601f168201915b505050505081565b606061133c826116e8565b61137b576040517f08c379a00000000000000000000000000000000000000000000000000000000081526004016113729061355c565b60405180910390fd5b6000611385611e07565b905060008151116113a557604051806020016040528060008152506113d3565b806113af84611e99565b600c6040516020016113c393929190613250565b6040516020818303038152906040525b915050919050565b600e5481565b6000600560008473ffffffffffffffffffffffffffffffffffffffff1673ffffffffffffffffffffffffffffffffffffffff16815260200190815260200160002060008373ffffffffffffffffffffffffffffffffffffffff1673ffffffffffffffffffffffffffffffffffffffff16815260200190815260200160002060009054906101000a900460ff16905092915050565b61147d611754565b73ffffffffffffffffffffffffffffffffffffffff1661149b61107a565b73ffffffffffffffffffffffffffffffffffffffff16146114f1576040517f08c379a00000000000000000000000000000000000000000000000000000000081526004016114e89061353c565b60405180910390fd5b80600f60006101000a81548160ff02191690831515021790555050565b611516611754565b73ffffffffffffffffffffffffffffffffffffffff1661153461107a565b73ffffffffffffffffffffffffffffffffffffffff161461158a576040517f08c379a00000000000000000000000000000000000000000000000000000000081526004016115819061353c565b60405180910390fd5b600073ffffffffffffffffffffffffffffffffffffffff168173ffffffffffffffffffffffffffffffffffffffff1614156115fa576040517f08c379a00000000000000000000000000000000000000000000000000000000081526004016115f1906133bc565b60405180910390fd5b61160381611b5a565b50565b60007f80ac58cd000000000000000000000000000000000000000000000000000000007bffffffffffffffffffffffffffffffffffffffffffffffffffffffff1916827bffffffffffffffffffffffffffffffffffffffffffffffffffffffff191614806116d157507f5b5e139f000000000000000000000000000000000000000000000000000000007bffffffffffffffffffffffffffffffffffffffffffffffffffffffff1916827bffffffffffffffffffffffffffffffffffffffffffffffffffffffff1916145b806116e157506116e082612046565b5b9050919050565b60008073ffffffffffffffffffffffffffffffffffffffff166002600084815260200190815260200160002060009054906101000a900473ffffffffffffffffffffffffffffffffffffffff1673ffffffffffffffffffffffffffffffffffffffff1614159050919050565b600033905090565b816004600083815260200190815260200160002060006101000a81548173ffffffffffffffffffffffffffffffffffffffff021916908373ffffffffffffffffffffffffffffffffffffffff160217905550808273ffffffffffffffffffffffffffffffffffffffff166117cf83610e88565b73ffffffffffffffffffffffffffffffffffffffff167f8c5be1e5ebec7d5bd14f71427d1e84f3dd0314c0f7b2291e5b200ac8c7c3b92560405160405180910390a45050565b6000611820826116e8565b61185f576040517f08c379a00000000000000000000000000000000000000000000000000000000081526004016118569061347c565b60405180910390fd5b600061186a83610e88565b90508073ffffffffffffffffffffffffffffffffffffffff168473ffffffffffffffffffffffffffffffffffffffff1614806118ac57506118ab81856113e1565b5b806118ea57508373ffffffffffffffffffffffffffffffffffffffff166118d2846107fe565b73ffffffffffffffffffffffffffffffffffffffff16145b91505092915050565b8273ffffffffffffffffffffffffffffffffffffffff1661191382610e88565b73ffffffffffffffffffffffffffffffffffffffff1614611969576040517f08c379a0000000000000000000000000000000000000000000000000000000008152600401611960906133dc565b60405180910390fd5b600073ffffffffffffffffffffffffffffffffffffffff168273ffffffffffffffffffffffffffffffffffffffff1614156119d9576040517f08c379a00000000000000000000000000000000000000000000000000000000081526004016119d09061341c565b60405180910390fd5b6119e48383836120b0565b6119ef60008261175c565b6001600360008573ffffffffffffffffffffffffffffffffffffffff1673ffffffffffffffffffffffffffffffffffffffff1681526020019081526020016000206000828254611a3f91906137fb565b925050819055506001600360008473ffffffffffffffffffffffffffffffffffffffff1673ffffffffffffffffffffffffffffffffffffffff1681526020019081526020016000206000828254611a96919061371a565b92505081905550816002600083815260200190815260200160002060006101000a81548173ffffffffffffffffffffffffffffffffffffffff021916908373ffffffffffffffffffffffffffffffffffffffff160217905550808273ffffffffffffffffffffffffffffffffffffffff168473ffffffffffffffffffffffffffffffffffffffff167fddf252ad1be2c89b69c2b068fc378daa952ba7f163c4a11628f55a4df523b3ef60405160405180910390a4611b558383836121c4565b505050565b6000600a60009054906101000a900473ffffffffffffffffffffffffffffffffffffffff16905081600a60006101000a81548173ffffffffffffffffffffffffffffffffffffffff021916908373ffffffffffffffffffffffffffffffffffffffff1602179055508173ffffffffffffffffffffffffffffffffffffffff168173ffffffffffffffffffffffffffffffffffffffff167f8be0079c531659141344cd1fd0a4f28419497f9722a3daafe3b4186f6b6457e060405160405180910390a35050565b611c3a8282604051806020016040528060008152506121c9565b5050565b8173ffffffffffffffffffffffffffffffffffffffff168373ffffffffffffffffffffffffffffffffffffffff161415611cad576040517f08c379a0000000000000000000000000000000000000000000000000000000008152600401611ca49061343c565b60405180910390fd5b80600560008573ffffffffffffffffffffffffffffffffffffffff1673ffffffffffffffffffffffffffffffffffffffff16815260200190815260200160002060008473ffffffffffffffffffffffffffffffffffffffff1673ffffffffffffffffffffffffffffffffffffffff16815260200190815260200160002060006101000a81548160ff0219169083151502179055508173ffffffffffffffffffffffffffffffffffffffff168373ffffffffffffffffffffffffffffffffffffffff167f17307eab39ab6107e8899845ad3d59bd9653f200f220920489ca2b5937696c3183604051611d9e919061331f565b60405180910390a3505050565b611db68484846118f3565b611dc284848484612224565b611e01576040517f08c379a0000000000000000000000000000000000000000000000000000000008152600401611df89061339c565b60405180910390fd5b50505050565b6060600b8054611e16906138e5565b80601f0160208091040260200160405190810160405280929190818152602001828054611e42906138e5565b8015611e8f5780601f10611e6457610100808354040283529160200191611e8f565b820191906000526020600020905b815481529060010190602001808311611e7257829003601f168201915b5050505050905090565b60606000821415611ee1576040518060400160405280600181526020017f30000000000000000000000000000000000000000000000000000000000000008152509050612041565b600082905060005b60008214611f13578080611efc90613948565b915050600a82611f0c9190613770565b9150611ee9565b60008167ffffffffffffffff811115611f55577f4e487b7100000000000000000000000000000000000000000000000000000000600052604160045260246000fd5b6040519080825280601f01601f191660200182016040528015611f875781602001600182028036833780820191505090505b5090505b6000851461203a57600182611fa091906137fb565b9150600a85611faf9190613991565b6030611fbb919061371a565b60f81b818381518110611ff7577f4e487b7100000000000000000000000000000000000000000000000000000000600052603260045260246000fd5b60200101907effffffffffffffffffffffffffffffffffffffffffffffffffffffffffffff1916908160001a905350600a856120339190613770565b9450611f8b565b8093505050505b919050565b60007f01ffc9a7000000000000000000000000000000000000000000000000000000007bffffffffffffffffffffffffffffffffffffffffffffffffffffffff1916827bffffffffffffffffffffffffffffffffffffffffffffffffffffffff1916149050919050565b6120bb8383836123bb565b600073ffffffffffffffffffffffffffffffffffffffff168373ffffffffffffffffffffffffffffffffffffffff1614156120fe576120f9816123c0565b61213d565b8173ffffffffffffffffffffffffffffffffffffffff168373ffffffffffffffffffffffffffffffffffffffff161461213c5761213b8382612409565b5b5b600073ffffffffffffffffffffffffffffffffffffffff168273ffffffffffffffffffffffffffffffffffffffff1614156121805761217b81612576565b6121bf565b8273ffffffffffffffffffffffffffffffffffffffff168273ffffffffffffffffffffffffffffffffffffffff16146121be576121bd82826126b9565b5b5b505050565b505050565b6121d38383612738565b6121e06000848484612224565b61221f576040517f08c379a00000000000000000000000000000000000000000000000000000000081526004016122169061339c565b60405180910390fd5b505050565b60006122458473ffffffffffffffffffffffffffffffffffffffff16612912565b156123ae578373ffffffffffffffffffffffffffffffffffffffff1663150b7a0261226e611754565b8786866040518563ffffffff1660e01b815260040161229094939291906132b1565b602060405180830381600087803b1580156122aa57600080fd5b505af19250505080156122db57506040513d601f19601f820116820180604052508101906122d89190612d0a565b60015b61235e573d806000811461230b576040519150601f19603f3d011682016040523d82523d6000602084013e612310565b606091505b50600081511415612356576040517f08c379a000000000000000000000000000000000000000000000000000000000815260040161234d9061339c565b60405180910390fd5b805181602001fd5b63150b7a0260e01b7bffffffffffffffffffffffffffffffffffffffffffffffffffffffff1916817bffffffffffffffffffffffffffffffffffffffffffffffffffffffff1916149150506123b3565b600190505b949350505050565b505050565b6008805490506009600083815260200190815260200160002081905550600881908060018154018082558091505060019003906000526020600020016000909190919091505550565b6000600161241684610f3a565b61242091906137fb565b9050600060076000848152602001908152602001600020549050818114612505576000600660008673ffffffffffffffffffffffffffffffffffffffff1673ffffffffffffffffffffffffffffffffffffffff168152602001908152602001600020600084815260200190815260200160002054905080600660008773ffffffffffffffffffffffffffffffffffffffff1673ffffffffffffffffffffffffffffffffffffffff168152602001908152602001600020600084815260200190815260200160002081905550816007600083815260200190815260200160002081905550505b6007600084815260200190815260200160002060009055600660008573ffffffffffffffffffffffffffffffffffffffff1673ffffffffffffffffffffffffffffffffffffffff16815260200190815260200160002060008381526020019081526020016000206000905550505050565b6000600160088054905061258a91906137fb565b90506000600960008481526020019081526020016000205490506000600883815481106125e0577f4e487b7100000000000000000000000000000000000000000000000000000000600052603260045260246000fd5b906000526020600020015490508060088381548110612628577f4e487b7100000000000000000000000000000000000000000000000000000000600052603260045260246000fd5b90600052602060002001819055508160096000838152602001908152602001600020819055506009600085815260200190815260200160002060009055600880548061269d577f4e487b7100000000000000000000000000000000000000000000000000000000600052603160045260246000fd5b6001900381819060005260206000200160009055905550505050565b60006126c483610f3a565b905081600660008573ffffffffffffffffffffffffffffffffffffffff1673ffffffffffffffffffffffffffffffffffffffff168152602001908152602001600020600083815260200190815260200160002081905550806007600084815260200190815260200160002081905550505050565b600073ffffffffffffffffffffffffffffffffffffffff168273ffffffffffffffffffffffffffffffffffffffff1614156127a8576040517f08c379a000000000000000000000000000000000000000000000000000000000815260040161279f906134fc565b60405180910390fd5b6127b1816116e8565b156127f1576040517f08c379a00000000000000000000000000000000000000000000000000000000081526004016127e8906133fc565b60405180910390fd5b6127fd600083836120b0565b6001600360008473ffffffffffffffffffffffffffffffffffffffff1673ffffffffffffffffffffffffffffffffffffffff168152602001908152602001600020600082825461284d919061371a565b92505081905550816002600083815260200190815260200160002060006101000a81548173ffffffffffffffffffffffffffffffffffffffff021916908373ffffffffffffffffffffffffffffffffffffffff160217905550808273ffffffffffffffffffffffffffffffffffffffff16600073ffffffffffffffffffffffffffffffffffffffff167fddf252ad1be2c89b69c2b068fc378daa952ba7f163c4a11628f55a4df523b3ef60405160405180910390a461290e600083836121c4565b5050565b6000808273ffffffffffffffffffffffffffffffffffffffff163b119050919050565b828054612941906138e5565b90600052602060002090601f01602090048101928261296357600085556129aa565b82601f1061297c57805160ff19168380011785556129aa565b828001600101855582156129aa579182015b828111156129a957825182559160200191906001019061298e565b5b5090506129b791906129bb565b5090565b5b808211156129d45760008160009055506001016129bc565b5090565b60006129eb6129e68461361c565b6135f7565b905082815260208101848484011115612a0357600080fd5b612a0e8482856138a3565b509392505050565b6000612a29612a248461364d565b6135f7565b905082815260208101848484011115612a4157600080fd5b612a4c8482856138a3565b509392505050565b600081359050612a6381613fda565b92915050565b600081359050612a7881613ff1565b92915050565b600081359050612a8d81614008565b92915050565b600081519050612aa281614008565b92915050565b600082601f830112612ab957600080fd5b8135612ac98482602086016129d8565b91505092915050565b600082601f830112612ae357600080fd5b8135612af3848260208601612a16565b91505092915050565b600081359050612b0b8161401f565b92915050565b600060208284031215612b2357600080fd5b6000612b3184828501612a54565b91505092915050565b60008060408385031215612b4d57600080fd5b6000612b5b85828601612a54565b9250506020612b6c85828601612a54565b9150509250929050565b600080600060608486031215612b8b57600080fd5b6000612b9986828701612a54565b9350506020612baa86828701612a54565b9250506040612bbb86828701612afc565b9150509250925092565b60008060008060808587031215612bdb57600080fd5b6000612be987828801612a54565b9450506020612bfa87828801612a54565b9350506040612c0b87828801612afc565b925050606085013567ffffffffffffffff811115612c2857600080fd5b612c3487828801612aa8565b91505092959194509250565b60008060408385031215612c5357600080fd5b6000612c6185828601612a54565b9250506020612c7285828601612a69565b9150509250929050565b60008060408385031215612c8f57600080fd5b6000612c9d85828601612a54565b9250506020612cae85828601612afc565b9150509250929050565b600060208284031215612cca57600080fd5b6000612cd884828501612a69565b91505092915050565b600060208284031215612cf357600080fd5b6000612d0184828501612a7e565b91505092915050565b600060208284031215612d1c57600080fd5b6000612d2a84828501612a93565b91505092915050565b600060208284031215612d4557600080fd5b600082013567ffffffffffffffff811115612d5f57600080fd5b612d6b84828501612ad2565b91505092915050565b600060208284031215612d8657600080fd5b6000612d9484828501612afc565b91505092915050565b6000612da98383613232565b60208301905092915050565b612dbe8161382f565b82525050565b6000612dcf826136a3565b612dd981856136d1565b9350612de48361367e565b8060005b83811015612e15578151612dfc8882612d9d565b9750612e07836136c4565b925050600181019050612de8565b5085935050505092915050565b612e2b81613841565b82525050565b6000612e3c826136ae565b612e4681856136e2565b9350612e568185602086016138b2565b612e5f81613a7e565b840191505092915050565b6000612e75826136b9565b612e7f81856136fe565b9350612e8f8185602086016138b2565b612e9881613a7e565b840191505092915050565b6000612eae826136b9565b612eb8818561370f565b9350612ec88185602086016138b2565b80840191505092915050565b60008154612ee1816138e5565b612eeb818661370f565b94506001821660008114612f065760018114612f1757612f4a565b60ff19831686528186019350612f4a565b612f208561368e565b60005b83811015612f4257815481890152600182019150602081019050612f23565b838801955050505b50505092915050565b6000612f606013836136fe565b9150612f6b82613a8f565b602082019050919050565b6000612f83602b836136fe565b9150612f8e82613ab8565b604082019050919050565b6000612fa66032836136fe565b9150612fb182613b07565b604082019050919050565b6000612fc96026836136fe565b9150612fd482613b56565b604082019050919050565b6000612fec6025836136fe565b9150612ff782613ba5565b604082019050919050565b600061300f601c836136fe565b915061301a82613bf4565b602082019050919050565b60006130326024836136fe565b915061303d82613c1d565b604082019050919050565b60006130556019836136fe565b915061306082613c6c565b602082019050919050565b6000613078601a836136fe565b915061308382613c95565b602082019050919050565b600061309b602c836136fe565b91506130a682613cbe565b604082019050919050565b60006130be6038836136fe565b91506130c982613d0d565b604082019050919050565b60006130e1602a836136fe565b91506130ec82613d5c565b604082019050919050565b60006131046029836136fe565b915061310f82613dab565b604082019050919050565b60006131276020836136fe565b915061313282613dfa565b602082019050919050565b600061314a602c836136fe565b915061315582613e23565b604082019050919050565b600061316d6020836136fe565b915061317882613e72565b602082019050919050565b6000613190602f836136fe565b915061319b82613e9b565b604082019050919050565b60006131b36021836136fe565b91506131be82613eea565b604082019050919050565b60006131d66000836136f3565b91506131e182613f39565b600082019050919050565b60006131f96031836136fe565b915061320482613f3c565b604082019050919050565b600061321c602c836136fe565b915061322782613f8b565b604082019050919050565b61323b81613899565b82525050565b61324a81613899565b82525050565b600061325c8286612ea3565b91506132688285612ea3565b91506132748284612ed4565b9150819050949350505050565b600061328c826131c9565b9150819050919050565b60006020820190506132ab6000830184612db5565b92915050565b60006080820190506132c66000830187612db5565b6132d36020830186612db5565b6132e06040830185613241565b81810360608301526132f28184612e31565b905095945050505050565b600060208201905081810360008301526133178184612dc4565b905092915050565b60006020820190506133346000830184612e22565b92915050565b600060208201905081810360008301526133548184612e6a565b905092915050565b6000602082019050818103600083015261337581612f53565b9050919050565b6000602082019050818103600083015261339581612f76565b9050919050565b600060208201905081810360008301526133b581612f99565b9050919050565b600060208201905081810360008301526133d581612fbc565b9050919050565b600060208201905081810360008301526133f581612fdf565b9050919050565b6000602082019050818103600083015261341581613002565b9050919050565b6000602082019050818103600083015261343581613025565b9050919050565b6000602082019050818103600083015261345581613048565b9050919050565b600060208201905081810360008301526134758161306b565b9050919050565b600060208201905081810360008301526134958161308e565b9050919050565b600060208201905081810360008301526134b5816130b1565b9050919050565b600060208201905081810360008301526134d5816130d4565b9050919050565b600060208201905081810360008301526134f5816130f7565b9050919050565b600060208201905081810360008301526135158161311a565b9050919050565b600060208201905081810360008301526135358161313d565b9050919050565b6000602082019050818103600083015261355581613160565b9050919050565b6000602082019050818103600083015261357581613183565b9050919050565b60006020820190508181036000830152613595816131a6565b9050919050565b600060208201905081810360008301526135b5816131ec565b9050919050565b600060208201905081810360008301526135d58161320f565b9050919050565b60006020820190506135f16000830184613241565b92915050565b6000613601613612565b905061360d8282613917565b919050565b6000604051905090565b600067ffffffffffffffff82111561363757613636613a4f565b5b61364082613a7e565b9050602081019050919050565b600067ffffffffffffffff82111561366857613667613a4f565b5b61367182613a7e565b9050602081019050919050565b6000819050602082019050919050565b60008190508160005260206000209050919050565b600081519050919050565b600081519050919050565b600081519050919050565b6000602082019050919050565b600082825260208201905092915050565b600082825260208201905092915050565b600081905092915050565b600082825260208201905092915050565b600081905092915050565b600061372582613899565b915061373083613899565b9250827fffffffffffffffffffffffffffffffffffffffffffffffffffffffffffffffff03821115613765576137646139c2565b5b828201905092915050565b600061377b82613899565b915061378683613899565b925082613796576137956139f1565b5b828204905092915050565b60006137ac82613899565b91506137b783613899565b9250817fffffffffffffffffffffffffffffffffffffffffffffffffffffffffffffffff04831182151516156137f0576137ef6139c2565b5b828202905092915050565b600061380682613899565b915061381183613899565b925082821015613824576138236139c2565b5b828203905092915050565b600061383a82613879565b9050919050565b60008115159050919050565b60007fffffffff0000000000000000000000000000000000000000000000000000000082169050919050565b600073ffffffffffffffffffffffffffffffffffffffff82169050919050565b6000819050919050565b82818337600083830152505050565b60005b838110156138d05780820151818401526020810190506138b5565b838111156138df576000848401525b50505050565b600060028204905060018216806138fd57607f821691505b6020821081141561391157613910613a20565b5b50919050565b61392082613a7e565b810181811067ffffffffffffffff8211171561393f5761393e613a4f565b5b80604052505050565b600061395382613899565b91507fffffffffffffffffffffffffffffffffffffffffffffffffffffffffffffffff821415613986576139856139c2565b5b600182019050919050565b600061399c82613899565b91506139a783613899565b9250826139b7576139b66139f1565b5b828206905092915050565b7f4e487b7100000000000000000000000000000000000000000000000000000000600052601160045260246000fd5b7f4e487b7100000000000000000000000000000000000000000000000000000000600052601260045260246000fd5b7f4e487b7100000000000000000000000000000000000000000000000000000000600052602260045260246000fd5b7f4e487b7100000000000000000000000000000000000000000000000000000000600052604160045260246000fd5b6000601f19601f8301169050919050565b7f4d696e74206973206e6f74206163746976652e00000000000000000000000000600082015250565b7f455243373231456e756d657261626c653a206f776e657220696e646578206f7560008201527f74206f6620626f756e6473000000000000000000000000000000000000000000602082015250565b7f4552433732313a207472616e7366657220746f206e6f6e20455243373231526560008201527f63656976657220696d706c656d656e7465720000000000000000000000000000602082015250565b7f4f776e61626c653a206e6577206f776e657220697320746865207a65726f206160008201527f6464726573730000000000000000000000000000000000000000000000000000602082015250565b7f4552433732313a207472616e736665722066726f6d20696e636f72726563742060008201527f6f776e6572000000000000000000000000000000000000000000000000000000602082015250565b7f4552433732313a20746f6b656e20616c7265616479206d696e74656400000000600082015250565b7f4552433732313a207472616e7366657220746f20746865207a65726f2061646460008201527f7265737300000000000000000000000000000000000000000000000000000000602082015250565b7f4552433732313a20617070726f766520746f2063616c6c657200000000000000600082015250565b7f416c6c204e4654732068617665206265656e206d696e7465642e000000000000600082015250565b7f4552433732313a206f70657261746f7220717565727920666f72206e6f6e657860008201527f697374656e7420746f6b656e0000000000000000000000000000000000000000602082015250565b7f4552433732313a20617070726f76652063616c6c6572206973206e6f74206f7760008201527f6e6572206e6f7220617070726f76656420666f7220616c6c0000000000000000602082015250565b7f4552433732313a2062616c616e636520717565727920666f7220746865207a6560008201527f726f206164647265737300000000000000000000000000000000000000000000602082015250565b7f4552433732313a206f776e657220717565727920666f72206e6f6e657869737460008201527f656e7420746f6b656e0000000000000000000000000000000000000000000000602082015250565b7f4552433732313a206d696e7420746f20746865207a65726f2061646472657373600082015250565b7f4552433732313a20617070726f76656420717565727920666f72206e6f6e657860008201527f697374656e7420746f6b656e0000000000000000000000000000000000000000602082015250565b7f4f776e61626c653a2063616c6c6572206973206e6f7420746865206f776e6572600082015250565b7f4552433732314d657461646174613a2055524920717565727920666f72206e6f60008201527f6e6578697374656e7420746f6b656e0000000000000000000000000000000000602082015250565b7f4552433732313a20617070726f76616c20746f2063757272656e74206f776e6560008201527f7200000000000000000000000000000000000000000000000000000000000000602082015250565b50565b7f4552433732313a207472616e736665722063616c6c6572206973206e6f74206f60008201527f776e6572206e6f7220617070726f766564000000000000000000000000000000602082015250565b7f455243373231456e756d657261626c653a20676c6f62616c20696e646578206f60008201527f7574206f6620626f756e64730000000000000000000000000000000000000000602082015250565b613fe38161382f565b8114613fee57600080fd5b50565b613ffa81613841565b811461400557600080fd5b50565b6140118161384d565b811461401c57600080fd5b50565b61402881613899565b811461403357600080fd5b5056fea2646970667358221220813549515469f27dbc09427bb4ae26717946b1cafa99e397f405d996669ad57764736f6c63430008040033",
  "linkReferences": {},
  "deployedLinkReferences": {}
}